:100000000C945E000C9486000C9486000C94860080
:100010000C9486000C9486000C9486000C94DE03ED
:100020000C9486000C9486000C9486000C94860038
:100030000C9486000C9486000C9486000C94860028
:100040000C94B8040C9486000C9486040C94600400
:100050000C9486000C9486000C9486000C94860008
:100060000C9486000C9486000000000024002700F9
:100070002A0000000008000201000003040700003D
:10008000000000000000010204081020408001026E
:1000900004081020010204081020000000002500C0
:1000A00028002B00040404040404040402020202D5
:1000B00002020303030303030200020511241FBE0F
:1000C000CFEFD8E0DEBFCDBF11E0A0E0B1E0E2E9C4
:1000D000FFE002C005900D92AC34B107D9F722E0E1
:1000E000ACE4B1E001C01D92AB31B207E1F710E022
:1000F000CEE5D0E004C02197FE010E94C107CD35B6
:10010000D107C9F70E944C050C94C7070C94000056
:10011000AF92BF92CF92DF92EF92FF920F931F9315
:10012000CF93DF936C017B018B01040F151FEB0153
:100130005E01AE18BF08C017D10759F06991D6010A
:10014000ED91FC910190F081E02DC6010995892B7C
:1001500079F7C501DF91CF911F910F91FF90EF903B
:10016000DF90CF90BF90AF900895FC01538D448DE8
:10017000252F30E0842F90E0821B930B541710F052
:10018000CF96089501970895FC01918D828D98175F
:1001900061F0A28DAE0FBF2FB11D5D968C91928D37
:1001A0009F5F9F73928F90E008958FEF9FEF089568
:1001B000FC01918D828D981731F0828DE80FF11D31
:1001C000858D90E008958FEF9FEF0895FC01918D4C
:1001D000228D892F90E0805C9F4F821B91098F7345
:1001E0009927089586E691E00E94E60021E0892B98
:1001F00009F420E0822F089580E090E0892B29F017
:100200000E94F20081110C9400000895FC01A48D5D
:10021000A80FB92FB11DA35ABF4F2C91848D90E028
:1002200001968F739927848FA689B7892C93A0890B
:10023000B1898C91837080648C93938D848D981395
:1002400006C00288F389E02D80818F7D8083089528
:10025000EF92FF920F931F93CF93DF93EC0181E016
:10026000888F9B8D8C8D98131AC0E889F9898081BD
:1002700085FF15C09FB7F894EE89FF896083E889F0
:10028000F98980818370806480839FBF81E090E0E2
:10029000DF91CF911F910F91FF90EF900895F62E6F
:1002A0000B8D10E00F5F1F4F0F731127E02E8C8D09
:1002B0008E110CC00FB607FCFACFE889F98980814E
:1002C00085FFF5CFCE010E940601F1CFEB8DEC0F3B
:1002D000FD2FF11DE35AFF4FF0829FB7F8940B8F6B
:1002E000EA89FB8980818062CFCFCF93DF93EC01D5
:1002F000888D8823B9F0AA89BB89E889F9898C910E
:1003000085FD03C0808186FD0DC00FB607FCF7CFC9
:100310008C9185FFF2CF808185FFEDCFCE010E94C9
:100320000601E9CFDF91CF91089590E0FC01EE58EE
:10033000FF4F2491FC01EA57FF4F3491FC01EC552B
:10034000FF4FE491EE23C9F0222339F0233001F16D
:10035000A8F4213019F1223029F1F0E0EE0FFF1F4F
:10036000E656FF4FA591B4918FB7F894EC916111C7
:1003700026C030953E233C938FBF08952730A9F0C7
:100380002830C9F0243049F7809180008F7D03C068
:10039000809180008F7780938000DFCF84B58F7746
:1003A00084BDDBCF84B58F7DFBCF8091B0008F778C
:1003B0008093B000D2CF8091B0008F7DF9CF3E2BDB
:1003C000DACFCF93DF9390E0FC01EA57FF4F2491FF
:1003D0008C559F4FFC0184918823D1F090E0880FC9
:1003E000991FFC01E859FF4FA591B491FC01E65615
:1003F000FF4FC591D49161110EC09FB7F8948C91B5
:10040000E22FE0958E238C932881E223E8839FBF1F
:10041000DF91CF9108958FB7F894EC91E22BEC9394
:100420008FBFF6CF3FB7F894809151019091520160
:10043000A0915301B091540126B5A89B05C02F3F50
:1004400019F00196A11DB11D3FBFBA2FA92F982FFA
:100450008827BC01CD01620F711D811D911D42E0F5
:10046000660F771F881F991F4A95D1F70895089541
:1004700090E080E00895CF93DF93EC0160E08E81FF
:100480000E94950161E08E810E94950160E08E815D
:100490000E9495018BE891E00197F1F7DF91CF91F0
:1004A0000895CF92DF92EF92FF920F931F93CF9315
:1004B000DF936C017C0187E0E80EF11CD0E0C0E026
:1004C000062F10E0B8010C2E02C0759567950A94AE
:1004D000E2F76170F70181917F010E9495012196F9
:1004E000C430D10579F7C601DF91CF911F910F91EB
:1004F000FF90EF90DF90CF900C943B02CF92DF9271
:10050000EF92FF920F931F93CF93DF93EC01F62EA0
:10051000642F8C810E9495018D818F3F19F060E0DE
:100520000E9495010F2D10E08F8584FF25C06E017C
:1005300087E0C80ED11CF12CE12CB8010E2C02C0B2
:10054000759567950A94E2F76170F60181916F01E4
:100550000E949501FFEFEF1AFF0A88E0E816F10408
:1005600061F7CE01DF91CF911F910F91FF90EF9036
:10057000DF90CF900C943B02B80184E075956795AD
:100580008A95E1F7CE010E9451026F2DCE01DF91D5
:10059000CF911F910F91FF90EF90DF90CF900C942F
:1005A000510240E0682F83E092E00C947E02CF93EA
:1005B000DF93823029F49091120298609093120296
:1005C000809316021092170280E48093180280E153
:1005D0008093190280E580931A0261E080910702FE
:1005E0000E94E101809108028F3F19F061E00E94B2
:1005F000E10161E0809109020E94E101C3E0D2E0E3
:100600009E01235032408091120284FD0BC084E091
:1006100090E021962817390744F461E08E810E940A
:10062000E101EECF88E090E0F4CF8BE39DE001970D
:10063000F1F760E0809107020E94950160E08091EF
:1006400009020E949501809108028F3F19F060E035
:100650000E9495018091120284FD39C063E083E01D
:1006600092E00E945102CBE4D6E4CE010197F1F76B
:1006700063E083E092E00E9451022197F1F763E08A
:1006800083E092E00E94510283E592E00197F1F746
:1006900062E083E092E00E94510280911202806247
:1006A0000E94D10284E0809313028CE00E94D10268
:1006B00081E00E94D1028BE39FE10197F1F782E094
:1006C0008093140286E0DF91CF910C94D102806276
:1006D0000E94D1028BE496E40197F1F78091120217
:1006E00080620E94D10283E592E00197F1F7809148
:1006F000120280620E94D102D0CF41E00E947E02AD
:1007000081E090E00895FB0101900020E9F7319726
:10071000AF01461B570BDC01ED91FC910280F38188
:10072000E02D09948F929F92AF92BF92EF92FF9229
:100730000F931F93CF93DF93CDB7DEB7A1970FB67B
:10074000F894DEBF0FBECDBF7C01FA01CB0119A228
:10075000223008F42AE08E010F5D1F4F822E912C6B
:10076000B12CA12CBF01A50194010E949F07F901A2
:10077000CA016A300CF5605DD8016E938D01232BA0
:10078000242B252B79F790E080E0109721F0BD0114
:10079000C7010E948303A1960FB6F894DEBF0FBE77
:1007A000CDBFDF91CF911F910F91FF90EF90BF9040
:1007B000AF909F908F900895695CDECF1F920F924B
:1007C0000FB60F9211242F933F934F935F936F9324
:1007D0007F938F939F93AF93BF93EF93FF938091FA
:1007E0005A0190915B01A0915C01B0915D01892B50
:1007F0008A2B8B2BD1F190915501E0915601F0910C
:10080000570180818927808380915A0190915B01F3
:10081000A0915C01B0915D01181619061A061B061D
:100820009CF480915A0190915B01A0915C01B09180
:100830005D010197A109B10980935A0190935B0171
:10084000A0935C01B0935D01FF91EF91BF91AF91D7
:100850009F918F917F916F915F914F913F912F91D8
:100860000F900FBE0F901F90189580910001E8EB3C
:10087000F0E0E4919FEF90930001E13051F030F00F
:10088000E23069F060E00E949501DECF10926E00C8
:10089000F9CF90916F009D7F90936F00F3CF90916F
:1008A00070009D7F9093700091E09093B0009091C4
:1008B000B100987F94609093B1001092B300E2CFA2
:1008C0001F920F920FB60F9211242F933F934F93C5
:1008D0005F936F937F938F939F93AF93BF93EF93A8
:1008E000FF9386E691E00E940601FF91EF91BF9190
:1008F000AF919F918F917F916F915F914F913F91B8
:100900002F910F900FBE0F901F9018951F920F926E
:100910000FB60F9211242F938F939F93EF93FF9312
:10092000E0917601F09177018081E0917C01F09176
:100930007D0182FD1BC0908180917F018F5F8F734D
:1009400020918001821741F0E0917F01F0E0EA59A7
:10095000FE4F958F80937F01FF91EF919F918F9133
:100960002F910F900FBE0F901F9018958081F4CF9C
:100970001F920F920FB60F9211242F933F938F93D4
:100980009F93AF93BF9380914D0190914E01A091A1
:100990004F01B091500130914C0123E0230F2D37CE
:1009A00058F50196A11DB11D20934C0180934D0176
:1009B00090934E01A0934F01B0935001809151014B
:1009C00090915201A0915301B09154010196A11D43
:1009D000B11D8093510190935201A0935301B093A4
:1009E0005401BF91AF919F918F913F912F910F90A3
:1009F0000FBE0F901F90189526E8230F0296A11D99
:100A0000B11DD2CFE6E6F1E01382128288EE93E0C8
:100A1000A0E0B0E084839583A683B78385E091E06E
:100A20009183808385EC90E09587848784EC90E0C7
:100A30009787868780EC90E0918B808B81EC90E0AB
:100A4000938B828B82EC90E0958B848B86EC90E08C
:100A5000978B868B118E128E138E148EE3E0F2E04C
:100A60001382128287E191E09183808387E08483FF
:100A70008FEF858386E0868385E0878384E08087A7
:100A800083E0818782E08287138614861586168626
:100A9000178681E00C94D702789484B5826084BD77
:100AA00084B5816084BD85B5826085BD85B5816072
:100AB00085BD80916E00816080936E0010928100F0
:100AC00080918100826080938100809181008160AB
:100AD000809381008091800081608093800080916C
:100AE000B10084608093B1008091B00081608093F8
:100AF000B00080917A00846080937A0080917A00BF
:100B0000826080937A0080917A00816080937A007D
:100B100080917A00806880937A001092C10061E031
:100B200088E00E94E10161E089E00E94E10160E06B
:100B30008EE00E94E101E0917601F091770182E080
:100B40008083E0917201F09173011082E091740151
:100B5000F09175018FEC808310927E01E0917A0113
:100B6000F0917B0186E08083E0917801F09179013A
:100B7000808180618083E0917801F09179018081AA
:100B800088608083E0917801F091790180818068AC
:100B90008083E0917801F091790180818F7D80835D
:100BA00081E00E94D1028BE39FE10197F1F782E09F
:100BB0000E94D7020DEA10E04FE8242E40E0342EC8
:100BC00050E9C52EDD24D394E12CF12CD0E4D09350
:100BD0007C0080917A00806480937A0080917A0012
:100BE00086FDFCCFA0907800B09079006FE171E0B5
:100BF00086E691E00E94830325010B2C000C660819
:100C000077082AE0B301A20177FE0DC06DE286E607
:100C100091E00E94280144275527BA01441955093B
:100C2000660977092AE086E691E00E9492036DE268
:100C300071E086E691E00E948303E1E08091160274
:100C40008111E0E0E195F0E0ED5FFD4F848980687F
:100C50000E94D1026FE171E083E092E00E94830381
:100C60002AE0B301A20177FE0EC041E06DE283E00D
:100C700092E00E947E0244275527BA014419550983
:100C8000660977092AE083E092E00E9492032BEF45
:100C9000A216B1040CF429C1E0911602E23008F06A
:100CA00045C0E150F0E0ED5FFD4F84898F5F8068C3
:100CB0000E94D10260E371E083E092E00E9483032E
:100CC00060E371E086E691E00E9483036DE271E0EB
:100CD00086E691E00E94830380910001893041F50E
:100CE000E8EBF0E0C491C7FDC2C061E089E00E947A
:100CF000E101CC2309F48BC0C23009F09CC0809183
:100D0000B100887F83608093B10089EF8093B30046
:100D1000C0925A01D0925B01E0925C01F0925D01B9
:100D200080917000826080937000A1C0E1E0BACF32
:100D30008F3F09F09CC089E080930001E8EBF0E070
:100D4000C491CF3F09F493C0C13019F150F0C230C3
:100D500009F43CC0C7FD8BC061E089E00E94E1015D
:100D6000CBCF14BC15BC84B5826084BD85B58160D1
:100D700085BDF8018491E82FF0E0EE0FFF1FE656E5
:100D8000FF4F85919491F101849180935901C0E0C6
:100D9000ACCF109280001092810080918100886019
:100DA0008093810080918100816080938100F801AF
:100DB0008491E82FF0E0EE0FFF1FE656FF4F85917C
:100DC0009491F1018491809358018FCF1092B000DB
:100DD0001092B1008091B00082608093B000809149
:100DE000B10081608093B100F8018491E82FF0E0B8
:100DF000EE0FFF1FE656FF4F859194919093570198
:100E000080935601F1018491809355016ECF85B591
:100E1000887F836085BD8CE787BDC0926201D092D8
:100E20006301E0926401F092650180916E0082603E
:100E300080936E001CC0C13009F04FC080918100CA
:100E4000887F8160809381008FE39FE19093890088
:100E500080938800C0925E01D0925F01E0926001B1
:100E6000F092610180916F00826080936F0061E079
:100E700088E00E9495010E9412022B013C0184EF40
:100E8000882E99249394A12CB12C0E9412026419EB
:100E9000750986099709683E734081059105A8F395
:100EA00091E0891A9108A108B108E8EE4E0EE3E03E
:100EB0005E1E611C711C81149104A104B10429F708
:100EC00080E090E0892B09F482CE0E94F200882312
:100ED00009F47CCE0E94000079CEC23021F0C1110D
:100EE000C6CF8FE399CF8FE311CF60E089E00E94F6
:100EF000950160E088E00E949501E0911602E230E1
:100F0000E0F4E150F0E0ED5FFD4F84898F5F806891
:100F10000E94D1026EE371E083E092E00E948303BD
:100F20006EE371E086E691E00E9483036DE271E07A
:100F300086E691E00E9483039ECFE1E0E3CFA1E249
:100F40001A2EAA1BBB1BFD010DC0AA1FBB1FEE1F43
:100F5000FF1FA217B307E407F50720F0A21BB30B8E
:100F6000E40BF50B661F771F881F991F1A9469F70A
:100F700060957095809590959B01AC01BD01CF0166
:100F80000895EE0FFF1F0590F491E02D0994F89459
:020F9000FFCF91
:100F9200FF0000000028018800B5007501E600C4CA
:100FA20000D800000000007D0388003802370241AB
:100FB2006972205175616C6974793A20000D0A00DA
:100FC2004151204C6576656C2048494748004151A3
:0C0FD200204C6576656C20476F6F640052
:00000001FF
